:020000040800F2
:100000009806002039020008E7030008E30300080F
:10001000E5030008F30200080507000800000000DF
:100020000000000000000000000000008104000843
:10003000F5020008000000004D040008F904000863
:10004000530200085302000853020008530200083C
:10005000530200085302000853020008530200082C
:10006000530200085302000853020008530200081C
:10007000530200085302000853020008530200080C
:100080005302000853020008530200080000000059
:100090000000000000000000000000005302000803
:1000A00053020008530200085302000853020008DC
:1000B00053020008530200088D050008530200088F
:1000C00053020008530200085302000853020008BC
:1000D0005302000853020008530200080000000009
:1000E00053020008530200085302000800000000F9
:1000F00000000000000000000000000053020008A3
:1001000000000000530200085302000853020008D8
:1001100000000000000000000000000000000000DF
:10012000530200085302000853020008530200085B
:100130005302000800000000000000000000000062
:100140000000000000000000000000005302000852
:10015000530200085302000853020008530200082B
:1001600053020008530200080000000000000000D5
:10017000000000000000000000000000000000007F
:100180000000000053020008000000000000000012
:10019000530200085302000800F002F800F03CF897
:1001A0000AA090E8000C82448344AAF10107DA45D2
:1001B00001D100F031F8AFF2090EBAE80F0013F0E8
:1001C000010F18BFFB1A43F0010318479005000008
:1001D000B0050000103A24BF78C878C1FAD8520799
:1001E00024BF30C830C144BF04680C6070470000B1
:1001F0000023002400250026103A28BF78C1FBD830
:10020000520728BF30C148BF0B6070471FB500F0D0
:100210009FFA1FBD10B510BD00F031F81146FFF771
:10022000F5FF00F071FA00F04FF803B4FFF7F2FFAA
:1002300003BC00F057F80000094880470948004710
:10024000FEE7FEE7FEE7FEE7FEE7FEE7FEE7FEE786
:10025000FEE7FEE704480549054A064B70470000E3
:10026000FD0400089901000898000020980600206D
:10027000980200209802002070477047704775462A
:1002800000F02CF8AE4605006946534620F0070002
:10029000854618B020B5FFF7DDFFBDE820404FF0E0
:1002A00000064FF000074FF000084FF0000B21F060
:1002B0000701AC46ACE8C009ACE8C009ACE8C0092D
:1002C000ACE8C0098D46704710B50446AFF3008016
:1002D0002046BDE81040FFF7A8BF00000048704767
:1002E0003400002001491820ABBEFEE726000200C2
:1002F0007047FEE7704701B50098411E0091FBD2A0
:1003000008BD000010B50121082000F0A1F8084840
:100310004FF47041016001210171002181710322BC
:100320004271C1710146BDE81040024800F004B8B6
:1003300008000020000C0240F0B500230124032730
:100340000D6804FA03F21540954242D1D0F800C07E
:100350005E0007FA06F52CEA050CC0F800C091F81B
:1003600004C0D0F800E00CFA06FC4CEA0E0CC0F811
:1003700000C091F804C0BCF1010F02D0BCF1020F23
:100380001FD1D0F808C02CEA050CC0F808C091F8BD
:1003900005C0D0F808E00CFA06FC4CEA0E0CC0F8D8
:1003A00008C0D0F804C02CEA020CC0F804C04268AF
:1003B00091F806C00CFA03FC1FFA8CFC42EA0C020E
:1003C0004260C268AA43C260CA79C568B2402A4383
:1003D000C2605B1C102BB3D3F0BD42694A4042613E
:1003E0007047FEE7FEE7704730B50F22C47801780A
:1003F0000123FCB1144C246801F1E02104F4E06411
:10040000C4F5E064C4F30724C4F10405E240447871
:10041000AC408578154025432A0181F800240078F6
:1004200000F01F018B404009800000F1E020C0F87F
:10043000003130BD01F01F0083404809800000F109
:10044000E020C0F8803130BD0CED00E070470000C6
:10045000044A0029116801D0014300E08143116082
:100460007047000030380240044A0029116801D06A
:10047000014300E0814311607047000040380240B2
:10048000704700001848016841F08051016017482A
:10049000016841F440410160134838380168016047
:1004A00001680160016841F480510160021F104938
:1004B0001160111F0A6842F080720A600A68920196
:1004C000FCD50C4A40F202711160016821F0030171
:1004D0000160016841F0020101600168C1F381011E
:1004E0000229FAD1704700004038024000700040F5
:1004F00010640107003C024070470000124810B52C
:10050000016841F4700101601048016841F0010187
:1005100001600E4A00210832116002680C4B1A403B
:100520000260031D0B4A1A60026822F480220260F6
:1005300006480C300160FFF7A5FF03494FF000604B
:100540008039086010BD000088ED00E000380240EE
:10055000FFFFF6FE1030002410B501210846FFF71A
:1005600083FF094800214A1E0180426001814180C9
:1005700001464FF08044204600F050F82046BDE888
:100580001040012100F029B82800002070B50E4D60
:100590000121284600F02DF8002813D00B4C2068CC
:1005A000401C2060B0F57A7F06D94FF420410848FE
:1005B000FFF713FF002020602846BDE870400121AE
:1005C00000F008B870BD00000008004010000020D6
:1005D000000C0240C943018270470029018802D003
:1005E00041F0010101E021F0010101807047406A02
:1005F000704702460020138A92890B4202EA0102E8
:1006000002D0002A00D001207047002A828901D040
:100610000A4300E08A4382817047000030B50288B7
:10062000164B174C98420DD0A0420BD0B0F1804F22
:1006300008D0144DA84205D0134DA84202D0134D46
:10064000A84203D122F070054A882A43104DA842DF
:1006500006D0104DA84203D022F440750A892A43DF
:1006600002804A68C2620A880285984201D0A0428C
:1006700001D1897A01860121818230BD00000140CB
:10068000000401400004004000080040000C00404D
:10069000001000400014004070B501210420FFF755
:1006A000E3FE1348134900240068144DB0FBF1F138
:1006B0001148491E018040F2E731416004814480C5
:1006C00001462846FFF7AAFF012211462846FFF7F8
:1006D0009CFF01212846FFF780FF09481E21017079
:1006E000447001218170C170BDE87040FFF77CBE8D
:1006F0001400002080841E00280000200008004014
:1007000000000020FEE70000FFF7FCFDFFF7C4FF3C
:10071000FFF722FFDFF830800C4E4FF080454FF49A
:10072000A0474FF47A792846FFF761FF044639461F
:100730004046FFF752FE4846FFF7DDFD2846FFF72B
:1007400056FF001B7060EEE7000C02400000002026
:100750004FF04070E1EE100A704700007C0700087F
:100760000000002028000000D4010008A4070008B1
:100770002800002070060000F001000800000000C2
:100780000000000000000000000000000000000069
:1007900000E1F50500000000000000000102030474
:0407A0000607080937
:040000050800019955
:00000001FF
