:020000040800F2
:100000006806002039020008FB030008F703000817
:10001000F9030008F3020008F104000800000000E2
:1000200000000000000000000000000019040008AB
:10003000F502000800000000FD030008910400081C
:10004000530200085302000853020008530200083C
:10005000530200085302000853020008530200082C
:10006000530200085302000853020008530200081C
:10007000530200085302000853020008530200080C
:100080005302000853020008530200080000000059
:100090000000000000000000000000005302000803
:1000A00053020008530200085302000853020008DC
:1000B00053020008530200085302000853020008CC
:1000C00053020008530200085302000853020008BC
:1000D0005302000853020008530200080000000009
:1000E00053020008530200085302000800000000F9
:1000F00000000000000000000000000053020008A3
:1001000000000000530200085302000853020008D8
:1001100000000000000000000000000000000000DF
:10012000530200085302000853020008530200085B
:100130005302000800000000000000000000000062
:100140000000000000000000000000005302000852
:10015000530200085302000853020008530200082B
:1001600053020008530200080000000000000000D5
:10017000000000000000000000000000000000007F
:100180000000000053020008000000000000000012
:10019000530200085302000800F002F800F03CF897
:1001A0000AA090E8000C82448344AAF10107DA45D2
:1001B00001D100F031F8AFF2090EBAE80F0013F0E8
:1001C000010F18BFFB1A43F0010318479403000006
:1001D000B4030000103A24BF78C878C1FAD8520797
:1001E00024BF30C830C144BF04680C6070470000B1
:1001F0000023002400250026103A28BF78C1FBD830
:10020000520728BF30C148BF0B6070471FB500F0D0
:10021000A1F91FBD10B510BD00F031F81146FFF770
:10022000F5FF00F067F900F04FF803B4FFF7F2FFB5
:1002300003BC00F057F80000094880470948004710
:10024000FEE7FEE7FEE7FEE7FEE7FEE7FEE7FEE786
:10025000FEE7FEE704480549054A064B70470000E3
:100260009504000899010008680000206806002035
:10027000680200206802002070477047704775468A
:1002800000F02CF8AE4605006946534620F0070002
:10029000854618B020B5FFF7DDFFBDE820404FF0E0
:1002A00000064FF000074FF000084FF0000B21F060
:1002B0000701AC46ACE8C009ACE8C009ACE8C0092D
:1002C000ACE8C0098D46704710B50446AFF3008016
:1002D0002046BDE81040FFF7A8BF00000048704767
:1002E0000800002001491820ABBEFEE726000200EE
:1002F0007047FEE7704701B50098411E0091FBD2A0
:1003000008BD000070B50121092000F079F80C4CFF
:100310004FF470400125206025710026A67103204E
:100320006071E5712146074800F010F825602671DC
:10033000E5712146BDE87040034800F007B80000B1
:1003400000000020000C024000000240F0B5002335
:10035000012403270D6804FA03F21540954242D1A7
:10036000D0F800C05E0007FA06F52CEA050CC0F8CC
:1003700000C091F804C0D0F800E00CFA06FC4CEA8A
:100380000E0CC0F800C091F804C0BCF1010F02D0FF
:10039000BCF1020F1FD1D0F808C02CEA050CC0F840
:1003A00008C091F805C0D0F808E00CFA06FC4CEA49
:1003B0000E0CC0F808C0D0F804C02CEA020CC0F83B
:1003C00004C0426891F806C00CFA03FC1FFA8CFCCA
:1003D00042EA0C024260C268AA43C260CA79C56898
:1003E000B2402A43C2605B1C102BB3D3F0BD4183E3
:1003F000704741617047FEE7FEE7704770470000B5
:10040000044A0029116801D0014300E081431160D2
:1004100070470000303802407047000018480168FB
:1004200041F0805101601748016841F4404101608A
:10043000134838380168016001680160016841F4BF
:1004400080510160021F10491160111F0A6842F0BB
:1004500080720A600A689201FCD50C4A40F202716F
:100460001160016821F003010160016841F002019F
:1004700001600168C1F381010229FAD170470000CF
:10048000403802400070004010640107003C024008
:1004900070470000124810B5016841F47001016016
:1004A0001048016841F0010101600E4A0021083244
:1004B000116002680C4B1A400260031D0B4A1A605F
:1004C000026822F48022026006480C300160FFF7C7
:1004D000A5FF03494FF000608039086010BD00009F
:1004E00088ED00E000380240FFFFF6FE10300024E7
:1004F000FEE70000FFF706FF144C4FF47041204662
:10050000FFF775FFA614124D77004FF480484FF4A3
:10051000004931462046FFF76CFF2846FFF7EBFE07
:1005200039462046FFF765FF2846FFF7E4FE4146BF
:100530002046FFF75EFF2846FFF7DDFE49462046CE
:10054000FFF757FF2846FFF7D6FEE2E7000C024010
:1005500040420F004FF04070E1EE100A704700007B
:10056000800500080000002008000000D4010008F9
:10057000880500080800002060060000F00100085F
:08058000000000000000000073
:040000050800019955
:00000001FF
