:020000040800F2
:100000007806002039020008EB040008E704000825
:10001000E9040008F30200088D0600080000000053
:10002000000000000000000000000000850500083E
:10003000F502000800000000510500082D06000828
:10004000530200085302000853020008530200083C
:100050005302000853020008F90200085302000886
:10006000530200085302000853020008530200081C
:10007000530200085302000853020008530200080C
:100080005302000853020008530200080000000059
:100090000000000000000000000000005302000803
:1000A00053020008530200085302000853020008DC
:1000B00053020008530200085302000853020008CC
:1000C00053020008530200085302000853020008BC
:1000D0005302000853020008530200080000000009
:1000E00053020008530200085302000800000000F9
:1000F00000000000000000000000000053020008A3
:1001000000000000530200085302000853020008D8
:1001100000000000000000000000000000000000DF
:10012000530200085302000853020008530200085B
:100130005302000800000000000000000000000062
:100140000000000000000000000000005302000852
:10015000530200085302000853020008530200082B
:1001600053020008530200080000000000000000D5
:10017000000000000000000000000000000000007F
:100180000000000053020008000000000000000012
:10019000530200085302000800F002F800F03CF897
:1001A0000AA090E8000C82448344AAF10107DA45D2
:1001B00001D100F031F8AFF2090EBAE80F0013F0E8
:1001C000010F18BFFB1A43F001031847D8040000C1
:1001D000F8040000103A24BF78C878C1FAD8520752
:1001E00024BF30C830C144BF04680C6070470000B1
:1001F0000023002400250026103A28BF78C1FBD830
:10020000520728BF30C148BF0B6070471FB500F0D0
:1002100043FA1FBD10B510BD00F031F81146FFF7CD
:10022000F5FF00F034FA00F04FF803B4FFF7F2FFE7
:1002300003BC00F057F80000094880470948004710
:10024000FEE7FEE7FEE7FEE7FEE7FEE7FEE7FEE786
:10025000FEE7FEE704480549054A064B70470000E3
:100260003106000899010008780000207806002077
:10027000780200207802002070477047704775466A
:1002800000F02CF8AE4605006946534620F0070002
:10029000854618B020B5FFF7DDFFBDE820404FF0E0
:1002A00000064FF000074FF000084FF0000B21F060
:1002B0000701AC46ACE8C009ACE8C009ACE8C0092D
:1002C000ACE8C0098D46704710B50446AFF3008016
:1002D0002046BDE81040FFF7A8BF00000048704767
:1002E0001400002001491820ABBEFEE726000200E2
:1002F0007047FEE77047000010B5012000F010F8CD
:10030000002807D04FF40041034800F0E8F8034903
:100310000120086010BD0000000C0240143C0140A8
:10032000034A0146002012680A4200D001207047AB
:10033000143C014030B51A498379026853B30B6805
:1003400093430B600A1D13680468A343136002798A
:100350000A441368046823431360114A083213687F
:100360000468A3431360131D1C680568AC431C603C
:100370004479102C05D021440A68006802430A60C1
:1003800030BD116804682143116019680068014399
:10039000196030BD0079084401689143016030BDA7
:1003A000003C014070B50121084600F0D3F801215E
:1003B000880300F0DBF81248012500240560047171
:1003C00002214171C47101460E4800F037F8002146
:1003D000084600F0D9F80A48102108300560047179
:1003E00041718571FFF7A6FF05480621001F0170C6
:1003F00044708470C570BDE8704000F077B80000AC
:10040000040000200000024010B50121082000F087
:10041000A1F808484FF470410160012101710021E9
:10042000817103224271C1710146BDE8104002484A
:1004300000F004B804000020000C0240F0B50023D6
:10044000012403270D6804FA03F21540954242D1B6
:10045000D0F800C05E0007FA06F52CEA050CC0F8DB
:1004600000C091F804C0D0F800E00CFA06FC4CEA99
:100470000E0CC0F800C091F804C0BCF1010F02D00E
:10048000BCF1020F1FD1D0F808C02CEA050CC0F84F
:1004900008C091F805C0D0F808E00CFA06FC4CEA58
:1004A0000E0CC0F808C0D0F804C02CEA020CC0F84A
:1004B00004C0426891F806C00CFA03FC1FFA8CFCD9
:1004C00042EA0C024260C268AA43C260CA79C568A7
:1004D000B2402A43C2605B1C102BB3D3F0BD42690B
:1004E0004A4042617047FEE7FEE7704730B50F2291
:1004F000C47801780123FCB1144C246801F1E02197
:1005000004F4E064C4F5E064C4F30724C4F1040512
:10051000E2404478AC408578154025432A0181F8B3
:100520000024007800F01F018B404009800000F19A
:10053000E020C0F8003130BD01F01F0083404809C1
:10054000800000F1E020C0F8803130BD0CED00E00B
:1005500070470000044A0029116801D0014300E0FF
:10056000814311607047000030380240044A00297E
:10057000116801D0014300E0814311607047000021
:10058000443802407047000010B58A0721F0030488
:100590000849130F21440F22D1F808489A40944388
:1005A000C1F80848D1F8082898400243C1F8082843
:1005B00010BD0000003001401848016841F0805132
:1005C00001601748016841F4404101601348383820
:1005D0000168016001680160016841F480510160B7
:1005E000021F10491160111F0A6842F080720A60F0
:1005F0000A689201FCD50C4A40F202711160016850
:1006000021F003010160016841F00201016001680D
:10061000C1F381010229FAD170470000403802403D
:100620000070004010640107003C02407047000069
:10063000124810B5016841F470010160104801686A
:1006400041F0010101600E4A002108321160026888
:100650000C4B1A400260031D0B4A1A60026822F418
:100660008022026006480C300160FFF7A5FF0349B5
:100670004FF000608039086010BD000088ED00E098
:1006800000380240FFFFF6FE10300024FEE7FFF7BF
:10069000BBFEFFF787FEFEE74FF04070E1EE100A69
:1006A00070470000C406000800000020140000008D
:1006B000D4010008D80600081400002064060000D9
:1006C000F001000800000000000000000000000031
:0806D000000000000000000022
:040000050800019955
:00000001FF
